{
  "contractName": "digitalCopyright",
  "abi": [
    {
      "constant": true,
      "inputs": [],
      "name": "name",
      "outputs": [
        {
          "name": "",
          "type": "string"
        }
      ],
      "payable": false,
      "stateMutability": "view",
      "type": "function"
    },
    {
      "constant": true,
      "inputs": [],
      "name": "fees_",
      "outputs": [
        {
          "name": "retr",
          "type": "uint256"
        },
        {
          "name": "owner",
          "type": "uint256"
        }
      ],
      "payable": false,
      "stateMutability": "view",
      "type": "function"
    },
    {
      "constant": true,
      "inputs": [
        {
          "name": "",
          "type": "uint256"
        }
      ],
      "name": "nIDxDIDs_",
      "outputs": [
        {
          "name": "addr",
          "type": "string"
        },
        {
          "name": "key",
          "type": "string"
        }
      ],
      "payable": false,
      "stateMutability": "view",
      "type": "function"
    },
    {
      "constant": true,
      "inputs": [],
      "name": "symbol",
      "outputs": [
        {
          "name": "",
          "type": "string"
        }
      ],
      "payable": false,
      "stateMutability": "view",
      "type": "function"
    },
    {
      "constant": true,
      "inputs": [],
      "name": "buyCount_",
      "outputs": [
        {
          "name": "",
          "type": "uint256"
        }
      ],
      "payable": false,
      "stateMutability": "view",
      "type": "function"
    },
    {
      "inputs": [],
      "payable": false,
      "stateMutability": "nonpayable",
      "type": "constructor"
    },
    {
      "constant": false,
      "inputs": [
        {
          "name": "_value",
          "type": "uint256"
        },
        {
          "name": "_rate",
          "type": "uint256"
        },
        {
          "name": "_addr",
          "type": "string"
        },
        {
          "name": "_key",
          "type": "string"
        }
      ],
      "name": "buyCopyright",
      "outputs": [],
      "payable": true,
      "stateMutability": "payable",
      "type": "function"
    },
    {
      "constant": false,
      "inputs": [],
      "name": "buyGoods",
      "outputs": [],
      "payable": true,
      "stateMutability": "payable",
      "type": "function"
    }
  ],
  "bytecode": "0x608060405234801561001057600080fd5b5060008081905550604080519081016040528060028152602001600881525060026000820151816000015560208201518160010155905050610fad806100576000396000f300608060405260043610610083576000357c0100000000000000000000000000000000000000000000000000000000900463ffffffff16806306fdde0314610088578063200373c9146101185780634aaf2cc01461014a57806395d89b411461025c578063b84b8b8c146102ec578063d1afae5e146102f6578063ecc91fdc14610321575b600080fd5b34801561009457600080fd5b5061009d6103d7565b6040518080602001828103825283818151815260200191508051906020019080838360005b838110156100dd5780820151818401526020810190506100c2565b50505050905090810190601f16801561010a5780820380516001836020036101000a031916815260200191505b509250505060405180910390f35b34801561012457600080fd5b5061012d610410565b604051808381526020018281526020019250505060405180910390f35b34801561015657600080fd5b5061017560048036038101908080359060200190929190505050610422565b604051808060200180602001838103835285818151815260200191508051906020019080838360005b838110156101b957808201518184015260208101905061019e565b50505050905090810190601f1680156101e65780820380516001836020036101000a031916815260200191505b50838103825284818151815260200191508051906020019080838360005b8381101561021f578082015181840152602081019050610204565b50505050905090810190601f16801561024c5780820380516001836020036101000a031916815260200191505b5094505050505060405180910390f35b34801561026857600080fd5b50610271610576565b6040518080602001828103825283818151815260200191508051906020019080838360005b838110156102b1578082015181840152602081019050610296565b50505050905090810190601f1680156102de5780820380516001836020036101000a031916815260200191505b509250505060405180910390f35b6102f46105af565b005b34801561030257600080fd5b5061030b6105ba565b6040518082815260200191505060405180910390f35b6103d56004803603810190808035906020019092919080359060200190929190803590602001908201803590602001908080601f0160208091040260200160405190810160405280939291908181526020018383808284378201915050505050509192919290803590602001908201803590602001908080601f01602080910402602001604051908101604052809392919081815260200183838082843782019150505050505091929192905050506105c0565b005b6040805190810160405280601481526020017f4950204469676974616c20436f7079726967687400000000000000000000000081525081565b60028060000154908060010154905082565b6001602052806000526040600020600091509050806000018054600181600116156101000203166002900480601f0160208091040260200160405190810160405280929190818152602001828054600181600116156101000203166002900480156104ce5780601f106104a3576101008083540402835291602001916104ce565b820191906000526020600020905b8154815290600101906020018083116104b157829003601f168201915b505050505090806001018054600181600116156101000203166002900480601f01602080910402602001604051908101604052809291908181526020018280546001816001161561010002031660029004801561056c5780601f106105415761010080835404028352916020019161056c565b820191906000526020600020905b81548152906001019060200180831161054f57829003601f168201915b5050505050905082565b6040805190810160405280600481526020017f495044430000000000000000000000000000000000000000000000000000000081525081565b6105b8336106d0565b565b60005481565b6000806000339150813b9050600081141515610644576040517f08c379a00000000000000000000000000000000000000000000000000000000081526004018080602001828103825260118152602001807f736f7272792068756d616e73206f6e6c7900000000000000000000000000000081525060200191505060405180910390fd5b600073ffffffffffffffffffffffffffffffffffffffff166108fc889081150290604051600060405180830381858888f1935050505015801561068b573d6000803e3d6000fd5b506106b260646106a4888a610b7c90919063ffffffff16565b610ba690919063ffffffff16565b92506106bd83610c4a565b6106c78585610d62565b50505050505050565b60008060008073ffffffffffffffffffffffffffffffffffffffff166370a08231306040518263ffffffff167c0100000000000000000000000000000000000000000000000000000000028152600401808273ffffffffffffffffffffffffffffffffffffffff1673ffffffffffffffffffffffffffffffffffffffff168152602001915050602060405180830381600087803b15801561077057600080fd5b505af1158015610784573d6000803e3d6000fd5b505050506040513d602081101561079a57600080fd5b810190808051906020019092919050505092506000831115610b76576107e160646107d360026001015486610ba690919063ffffffff16565b610b7c90919063ffffffff16565b915061080e606461080060026000015486610ba690919063ffffffff16565b610b7c90919063ffffffff16565b90506108356108268284610dcf90919063ffffffff16565b84610e5790919063ffffffff16565b9250600073ffffffffffffffffffffffffffffffffffffffff166323b872dd306000856040518463ffffffff167c0100000000000000000000000000000000000000000000000000000000028152600401808473ffffffffffffffffffffffffffffffffffffffff1673ffffffffffffffffffffffffffffffffffffffff1681526020018373ffffffffffffffffffffffffffffffffffffffff1673ffffffffffffffffffffffffffffffffffffffff1681526020018281526020019350505050602060405180830381600087803b15801561091057600080fd5b505af1158015610924573d6000803e3d6000fd5b505050506040513d602081101561093a57600080fd5b810190808051906020019092919050505050600073ffffffffffffffffffffffffffffffffffffffff166323b872dd306000866040518463ffffffff167c0100000000000000000000000000000000000000000000000000000000028152600401808473ffffffffffffffffffffffffffffffffffffffff1673ffffffffffffffffffffffffffffffffffffffff1681526020018373ffffffffffffffffffffffffffffffffffffffff1673ffffffffffffffffffffffffffffffffffffffff1681526020018281526020019350505050602060405180830381600087803b158015610a2557600080fd5b505af1158015610a39573d6000803e3d6000fd5b505050506040513d6020811015610a4f57600080fd5b810190808051906020019092919050505050600073ffffffffffffffffffffffffffffffffffffffff166323b872dd3086846040518463ffffffff167c0100000000000000000000000000000000000000000000000000000000028152600401808473ffffffffffffffffffffffffffffffffffffffff1673ffffffffffffffffffffffffffffffffffffffff1681526020018373ffffffffffffffffffffffffffffffffffffffff1673ffffffffffffffffffffffffffffffffffffffff1681526020018281526020019350505050602060405180830381600087803b158015610b3957600080fd5b505af1158015610b4d573d6000803e3d6000fd5b505050506040513d6020811015610b6357600080fd5b8101908080519060200190929190505050505b50505050565b600080600083111515610b8e57600080fd5b8284811515610b9957fe5b0490508091505092915050565b600080831415610bb95760009050610c44565b8183029050818382811515610bca57fe5b04141515610c40576040517f08c379a00000000000000000000000000000000000000000000000000000000081526004018080602001828103825260138152602001807f536166654d617468206d756c206661696c65640000000000000000000000000081525060200191505060405180910390fd5b8090505b92915050565b600073ffffffffffffffffffffffffffffffffffffffff166323b872dd600030846040518463ffffffff167c0100000000000000000000000000000000000000000000000000000000028152600401808473ffffffffffffffffffffffffffffffffffffffff1673ffffffffffffffffffffffffffffffffffffffff1681526020018373ffffffffffffffffffffffffffffffffffffffff1673ffffffffffffffffffffffffffffffffffffffff1681526020018281526020019350505050602060405180830381600087803b158015610d2357600080fd5b505af1158015610d37573d6000803e3d6000fd5b505050506040513d6020811015610d4d57600080fd5b81019080805190602001909291905050505050565b60008081548092919060010191905055508160016000805481526020019081526020016000206000019080519060200190610d9e929190610edc565b508060016000805481526020019081526020016000206001019080519060200190610dca929190610edc565b505050565b60008183019050828110151515610e4e576040517f08c379a00000000000000000000000000000000000000000000000000000000081526004018080602001828103825260138152602001807f536166654d61746820616464206661696c65640000000000000000000000000081525060200191505060405180910390fd5b80905092915050565b6000828211151515610ed1576040517f08c379a00000000000000000000000000000000000000000000000000000000081526004018080602001828103825260138152602001807f536166654d61746820737562206661696c65640000000000000000000000000081525060200191505060405180910390fd5b818303905092915050565b828054600181600116156101000203166002900490600052602060002090601f016020900481019282601f10610f1d57805160ff1916838001178555610f4b565b82800160010185558215610f4b579182015b82811115610f4a578251825591602001919060010190610f2f565b5b509050610f589190610f5c565b5090565b610f7e91905b80821115610f7a576000816000905550600101610f62565b5090565b905600a165627a7a723058208c915cd5d340ef33b3c2b9f024693c2d63fed2f348b0610ab9113f97f67cb7200029",
  "source": "pragma solidity ^0.4.24;\n\n/**\n * @title IP digital copyright.\n */\n//==============================================================================\n//     _    _  _ _|_ _  .\n//    (/_\\/(/_| | | _\\  .\n//==============================================================================\ncontract digitalCopyright {\n    using SafeMath for *;\n\n    address constant private IpOwner = 0x0;\n    address constant private IpBuyer = 0x0;\n    ERC20Interface constant private IERC20 = ERC20Interface(0x0);\n//==============================================================================\n//     _ _  _  |`. _     _ _ |_ | _  _  .\n//    (_(_)| |~|~|(_||_|| (_||_)|(/__\\  .  (default settings)\n//=================_|===========================================================\n    string constant public name = \"IP Digital Copyright\";\n    string constant public symbol = \"IPDC\";\n//==============================================================================\n//     _| _ _|_ _    _ _ _|_    _   .\n//    (_|(_| | (_|  _\\(/_ | |_||_)  .  (data used to store info that changes)\n//=============================|================================================\n    uint256 public buyCount_;\n//****************\n// LICENSE DATA \n//****************\n    mapping (uint256 => Elastos.DIDs) public nIDxDIDs_; // (number => DID) returns did by buying index\n//****************\n// FEE DATA \n//****************\n    IPDCdatasets.distributeFee public fees_; // define each stakeholder's fee;\n//==============================================================================\n//     _ _  _  __|_ _    __|_ _  _  .\n//    (_(_)| |_\\ | | |_|(_ | (_)|   .  (initial data setup upon contract deploy)\n//==============================================================================\n    constructor ()\n        public\n    {\n        buyCount_ = 0;\n        fees_ = IPDCdatasets.distributeFee(2, 8); // 90% to IP copyright buyer, 2% return to user, 8% give to IP owner\n    }\n//==============================================================================\n//     _ _  _  _|. |`. _  _ _  .\n//    | | |(_)(_||~|~|(/_| _\\  .  (these are safety checks)\n//==============================================================================\n    /**\n     * @dev prevents contracts from interacting with fomo3dx \n     */\n    modifier isHuman() {\n        address _addr = msg.sender;\n        uint256 _codeLength;\n        \n        assembly {_codeLength := extcodesize(_addr)}\n        require(_codeLength == 0, \"sorry humans only\");\n        _;\n    }\n//==============================================================================\n//     _    |_ |. _   |`    _  __|_. _  _  _  .\n//    |_)|_||_)||(_  ~|~|_|| |(_ | |(_)| |_\\  .  (use these to interact with contract)\n//====|=========================================================================\n     /**\n     * @dev buy copyright with paramaters\n     */\n    function buyCopyright\n        (\n        uint256 _value,\n        uint256 _rate,\n        string _addr,\n        string _key\n        )\n        public\n        payable\n        isHuman()\n    {\n        IpOwner.transfer(_value);\n        uint256 _assets = (_value.div(_rate)).mul(100);\n        mortgage(_assets);\n        updateDID(_addr, _key);\n    }\n\n    /**\n     * @dev mortgage token amount to contract\n     */\n    function mortgage (uint256 _assets)\n        private\n    {\n        IERC20.transferFrom(IpOwner, address(this), _assets);\n    }\n\n    /**\n     * @dev update address and key to search DID\n     */\n    function updateDID (string _addr, string _key)\n        private\n    {\n        buyCount_++;\n        nIDxDIDs_[buyCount_].addr = _addr;\n        nIDxDIDs_[buyCount_].key = _key;\n    }\n\n    /**\n     * @dev customer buy goods and distribute\n     */\n    function buyGoods ()\n        public\n        payable\n    {\n        distribute(msg.sender);\n    }\n\n    /**\n     * @dev distribute token amount to each stakeholder\n     */\n    function distribute (address _user)\n        private\n    {\n        uint256 _balance = IERC20.balanceOf(address(this));\n        if (_balance > 0)\n        {\n            uint256 _ownValue = (_balance.mul(fees_.owner)).div(100);\n            uint256 _retrValue = (_balance.mul(fees_.retr)).div(100);\n            _balance = _balance.sub(_ownValue.add(_retrValue));\n            // distribute to each stakeholder\n            IERC20.transferFrom(address(this), IpOwner, _ownValue);\n            IERC20.transferFrom(address(this), IpBuyer, _balance);\n            IERC20.transferFrom(address(this), _user, _retrValue);\n        }\n    }\n}\n\n//==============================================================================\n//  . _ _|_ _  _ |` _  _ _  _  .\n//  || | | (/_| ~|~(_|(_(/__\\  .\n//==============================================================================\n/**\n * @title ERC20 interface\n * @dev see https://github.com/ethereum/EIPs/issues/20\n */\ninterface ERC20Interface {\n  function totalSupply() external view returns (uint256);\n\n  function balanceOf(address who) external view returns (uint256);\n\n  function allowance(address owner, address spender)\n    external view returns (uint256);\n\n  function transfer(address to, uint256 value) external returns (bool);\n\n  function approve(address spender, uint256 value)\n    external returns (bool);\n\n  function transferFrom(address from, address to, uint256 value)\n    external returns (bool);\n\n  event Transfer(\n    address indexed from,\n    address indexed to,\n    uint256 value\n  );\n\n  event Approval(\n    address indexed owner,\n    address indexed spender,\n    uint256 value\n  );\n}\n\n//==============================================================================\n//   __|_ _    __|_ _  .\n//  _\\ | | |_|(_ | _\\  .\n//==============================================================================\n/**\n * @dev the implementation of elastos DID searching\n */\nlibrary Elastos {\n    struct DIDs {\n        string addr;\n        string key;\n    }\n}\n\n/**\n * @dev datasets of IP digital right\n */\nlibrary IPDCdatasets {\n    struct distributeFee {\n        uint256 retr; // distribute 2% fee to buyer  \n        uint256 owner; // distribute 8% fee to ip right owner\n    }\n}\n\n/**\n * @title SafeMath\n * @dev Math operations with safety checks that throw on error\n * change notes:  original SafeMath library from OpenZeppelin modified by Inventor\n * - added sqrt\n * - added sq\n * - added pwr \n * - changed asserts to requires with error log outputs\n */\nlibrary SafeMath {\n    \n    /**\n    * @dev Multiplies two numbers, throws on overflow.\n    */\n    function mul(uint256 a, uint256 b) \n        internal \n        pure \n        returns (uint256 c) \n    {\n        if (a == 0) {\n            return 0;\n        }\n        c = a * b;\n        require(c / a == b, \"SafeMath mul failed\");\n        return c;\n    }\n\n    /**\n    * @dev Integer division of two numbers, truncating the quotient.\n    */\n    function div(uint256 a, uint256 b) internal pure returns (uint256) {\n        require(b > 0); // Solidity only automatically asserts when dividing by 0\n        uint256 c = a / b;\n        // assert(a == b * c + a % b); // There is no case in which this doesn't hold\n        return c;\n    }\n    \n    /**\n    * @dev Subtracts two numbers, throws on overflow (i.e. if subtrahend is greater than minuend).\n    */\n    function sub(uint256 a, uint256 b)\n        internal\n        pure\n        returns (uint256) \n    {\n        require(b <= a, \"SafeMath sub failed\");\n        return a - b;\n    }\n\n    /**\n    * @dev Adds two numbers, throws on overflow.\n    */\n    function add(uint256 a, uint256 b)\n        internal\n        pure\n        returns (uint256 c) \n    {\n        c = a + b;\n        require(c >= a, \"SafeMath add failed\");\n        return c;\n    }\n    \n    /**\n     * @dev gives square root of given x.\n     */\n    function sqrt(uint256 x)\n        internal\n        pure\n        returns (uint256 y) \n    {\n        uint256 z = ((add(x,1)) / 2);\n        y = x;\n        while (z < y) \n        {\n            y = z;\n            z = ((add((x / z),z)) / 2);\n        }\n    }\n    \n    /**\n     * @dev gives square. multiplies x by x\n     */\n    function sq(uint256 x)\n        internal\n        pure\n        returns (uint256)\n    {\n        return (mul(x,x));\n    }\n    \n    /**\n     * @dev x to the power of y \n     */\n    function pwr(uint256 x, uint256 y)\n        internal \n        pure \n        returns (uint256)\n    {\n        if (x==0)\n            return (0);\n        else if (y==0)\n            return (1);\n        else \n        {\n            uint256 z = x;\n            for (uint256 i=1; i < y; i++)\n                z = mul(z,x);\n            return (z);\n        }\n    }\n\n    /**\n    * @dev Divides two numbers and returns the remainder (unsigned integer modulo),\n    * reverts when dividing by zero.\n    */\n    function mod(uint256 a, uint256 b) internal pure returns (uint256) {\n        require(b != 0);\n        return a % b;\n    }\n}",
  "sourcePath": "/Users/5swind/Downloads/DoraHacks-GHS-2018/truffle/contracts/digitalCopyright.sol",
  "compiler": {
    "name": "solc",
    "version": "0.4.24+commit.e67f0147.Emscripten.clang"
  },
  "schemaVersion": "2.0.1",
  "updatedAt": "2018-11-10T12:48:44.023Z"
}